:020000040800F2
:10000000F0290020311C000861020008630200088A
:10001000670200086B0200086F0200080000000081
:100020000000000000000000000000007302000853
:10003000750200080000000077020008790200083D
:100040004B1C00084B1C00084B1C00084B1C0008F4
:100050004B1C00084B1C00084B1C00084B1C0008E4
:100060004B1C00084B1C00084B1C00081B1500080B
:100070004B1C00084B1C00084B1C00084B1C0008C4
:100080004B1C00084B1C00084B1C00084B1C0008B4
:10009000ED3900084B1C00084B1C00084B1C0008E5
:1000A0004B1C00084B1C00084B1C00084B1C000894
:1000B0004B1C0008B70400084B1C00084B1C000830
:1000C0004B1C00084B1C00084B1C00084B1C000874
:1000D0004B1C0008A71B00084B1C00084B1C000809
:1000E0004B1C00084B1C0008E13900084B1C0008A1
:1000F0004B1C00084B1C00084B1C00084B1C000844
:100100004B1C00084B1C00084B1C00084B1C000833
:100110004B1C00084B1C00084B1C00084B1C000823
:100120004B1C00084B1C00084B1C00084B1C000813
:1001300000F002F800F062F80AA090E8000C824497
:100140008344AAF10107DA4501D100F057F8AFF274
:10015000090EBAE80F0013F0010F18BFFB1A43F0A5
:1001600001031847945B0000B45B00000A444FF0A1
:10017000000C10F8013B13F0070408BF10F8014B06
:100180001D1108BF10F8015B641E05D010F8016B4B
:10019000641E01F8016BF9D113F0080F1EBF10F8AF
:1001A000014BAD1C0C1B09D16D1E58BF01F801CBD2
:1001B000FAD505E014F8016B01F8016B6D1EF9D555
:1001C0009142D6D37047000000230024002500266A
:1001D000103A28BF78C1FBD8520728BF30C148BFAA
:1001E0000B607047642905F0F383782905F02C84AF
:1001F000002070471FB51FBD10B510BD05F0DCFC19
:100200001146FFF7F7FF00F008F805F0FAFC03B419
:10021000FFF7F2FF03BC01F06BFC01F0CDFB4FF4E4
:10022000E13001F074FC4FF4A06002F0A5FA4FF445
:10023000FA7001F0FEFB002003F01FFC642001F0C7
:10024000F8FB012003F019FC03F0D4FB03F0EAFBF8
:1002500004F04EFD00F06BFA01E001F03EFBFCE71C
:10026000704700BFFEE700BFFEE700BFFEE700BF2C
:10027000FEE7704770477047704700000CB50020DC
:10028000019000906C48006840F480306A49086032
:1002900000BF6948006800F4003000900198401CDD
:1002A0000190009818B90198B0F5A06FF1D162489B
:1002B000006800F4003010B10120009001E000203F
:1002C00000900098012843D15C48006840F010007D
:1002D0005A4908600846006820F003000860084694
:1002E000006840F002000860534840685249486086
:1002F0000846406848600846406840F480604860AE
:100300000846406820F47C1048600846406840F485
:10031000E81048600846006840F08070086000BF40
:100320004548006800F000700028F9D04248406855
:1003300020F00300404948600846406840F0020051
:10034000486000BF3C48406800F00C000828F9D124
:100350000CBD10B5FFF792FF10BD10B53648006810
:1003600040F00100344908600846406834490840BC
:100370003149486008460068324908402E49086003
:100380000846006820F4802008600846406820F491
:10039000FE0048604FF41F008860FFF7DAFF4FF05F
:1003A00000602949086010BD10B50021002000221E
:1003B000214B5B6803F00C0121B1042906D0082908
:1003C00028D107E0214B224C236027E01F4B204C13
:1003D000236023E0184B5B6803F47010164B5B68D6
:1003E00003F48032022303EB904022B9194B4343BC
:1003F000174C23600DE0104B5B6803F4003323B10E
:10040000144B4343124C236003E0104B4343104C06
:10041000236003E00D4B0E4C236000BF00BF064B72
:100420005B68C3F303130C4CE15C094B1B68CB40C6
:10043000074C236010BD0000001002400020024065
:100440000000FFF8FFFFF6FE08ED00E000127A0062
:100450000000002000093D00040000207FB5054693
:100460000C460121022001F02CFFADF80850ADF838
:1004700004400020ADF80A00ADF8060001A91748B5
:1004800002F0BCFA01221146144802F02EFE1D2093
:100490008DF8000000208DF8010003208DF8020087
:1004A00001208DF80300684602F06BF901210B482A
:1004B00002F000FE7FBD10B50121084803F0C3F82B
:1004C00058B10121054803F0CFF80548006808B984
:1004D000012000E000200249086010BD0004004037
:1004E0008881224208B50121FA4801F0F2FC01217D
:1004F000F94801F0EEFC1020F849086003208DF85F
:1005000002001020ADF8000003208DF80200142036
:100510008DF803006946F148103801F009FC80208D
:10052000ADF8000003208DF8020004208DF80300D0
:100530006946EA48103801F0FBFB4FF40070ADF853
:10054000000003208DF8020004208DF803006946A6
:10055000E248103801F0ECFB4020E0490860ADF8BB
:10056000000010208DF803006946DC48103801F0C7
:10057000DFFB08BD00B597B0D94803F079F8D8483B
:10058000643003F075F80020ADF81E00ADF81A00D5
:100590004FF6FF70ADF81C000020ADF8180006A95A
:1005A000D04802F02BFA0420ADF824000020ADF86A
:1005B0002C000220ADF826000020ADF82A00012012
:1005C000ADF8280009A9C74802F0F6FC6020ADF894
:1005D00004000120ADF80600ADF80A000220ADF8D5
:1005E0000C0001A9BF4802F0D5FA6021BD4802F015
:1005F0009BFD0421BB4802F0DFFF8021B94802F0D7
:10060000E4FF01225102B74802F07FFD0121B54805
:1006100002F050FD0CA803F0EBF8B24834300C9017
:1006200000200E900F90B0480D9000201090802078
:1006300011904000129080001390002014904FF40D
:1006400000501590002016900CA9A54803F0B2F8B0
:1006500001220221A24803F0E4F80B208DF81400D7
:1006600002208DF8150000208DF8160001208DF86D
:10067000170005A802F085F80020ADF81E00ADF8BF
:100680001A004FF6FF70ADF81C000020ADF81800FE
:1006900006A9964802F0B2F901A802F0E4FC602035
:1006A000ADF804000120ADF806000020ADF80A0006
:1006B0000220ADF80C0001A98C4802F0DCF9012100
:1006C0008A4802F0F7FD01225102884802F01DFD20
:1006D0000121864802F0FAFC0CA803F089F883484F
:1006E00034300C9010200E9000200F9080480D9018
:1006F00000201090802011904000129080001390F4
:10070000002014904FF400501590002016900CA972
:100710007348643003F04EF801217148643003F0EF
:1007200074F80121714802F0C5FC17B000BD10B586
:100730000121084601F0ABFD0121062001F0C1FDB9
:100740000121082001F0B0FD0121084601F0ACFDB7
:10075000FFF7C8FEFFF70EFF10BD30B5654B1B68F5
:100760004FF47A74B3FBF4F3B3FBF4F3B3FBF0F39D
:100770008C1863435B1E604C23805E4B1B684FF4F8
:100780007A74B3FBF4F3B3FBF4F3B3FBF0F34B4332
:100790005B1E5A4C2380574B1B684FF47A74B3FB93
:1007A000F4F3B3FBF4F3B3FBF0F353435B1E544C8D
:1007B0002380514B1B884D4C2C34238001234B4C00
:1007C000143423804C4C238803EBD37464104D4DB8
:1007D0002C8030BD00B5022214210820FFF7BDFF98
:1007E00000BD00B5022208210846FFF7B6FF00BD94
:1007F00030B50346414800883D4C2080002117E079
:10080000C1F1020043FA00F000F0010040B13C48A1
:100810000488374D481C25F81040501C42B205E0B2
:1008200036480488324D481C25F81040481C41B217
:100830000329E5DB02F0010020B1314800882C4C8F
:10084000208103E02D480088294C2081002030BD04
:10085000F0B505460B46264900BF21480838806898
:100860004FF6FE7C00EA0C00DFF874C0ACF1080C17
:10087000CCF80800D81CCCF80C000220CCF80400FE
:1008800018482030008840F01100DFF858C00CF103
:10089000200CACF8000012480838806840F00100D5
:1008A000DFF83CC0ACF1080CCCF808001348008815
:1008B00021F8020B0026581E44B22BE045FA04F042
:1008C00000F0010000B30E48008821F8020B701CF4
:1008D00046B21DE00002300000081A00100C014072
:1008E0000800024000080040880100200004004089
:1008F000C801002000000020180000201A0000207D
:100900001C0000201E000020FC48008821F8020B7B
:10091000601E44B2002CD1DA06F0010020B1F84884
:10092000008821F8020B03E0F448008821F8020B4C
:10093000002021F8020BF348C06E20F00100DFF820
:10094000C4C3CCF86C00D81CCCF87000EE48CCF8CE
:1009500078000120DFF8B4C3ACF80000E948C06EAD
:1009600040F00100DFF89CC3CCF86C00E748001DA4
:10097000008840F00800DFF894C30CF1040CACF8D8
:10098000000000BFDF48006800F400100028F9D024
:100990004FF40010DFF86CC3CCF80400DB48001DF6
:1009A00000884FF6F77C00EA0C00DFF860C30CF11A
:1009B000040CACF80000D64F00BFD248006800F02D
:1009C000020010B9781E0700F7D10220DFF834C307
:1009D000CCF80400604680684FF6FE7C00EA0C000C
:1009E000DFF820C3CCF808000920CCF80C00C94877
:1009F000CCF814006046806840F00100CCF8080094
:100A00000FB90220F0BDDFF80CC3ACF1010C981C4B
:100A10003CF81000DFF800C3BCF800C0604505DDFD
:100A200012B1501E82B218E70120EBE70020E9E77F
:100A300070B502460B460020B54900BFB14C246892
:100A400004F0020414B94C1E2100F7D10224AD4D6C
:100A50006C600024147000295BD0002110E04C1C55
:100A6000AC4D6D1E35F81440AB4D2D88AC4206DA06
:100A70001478C1F107060125B5402C431470491CB8
:100A80000829ECD39F4CA4684FF6FE752C409D4D71
:100A9000AC600B24EC609F4C641E6C612C46A46817
:100AA00044F00104AC60964C2488974D2C800024BF
:100AB0006C80944CE46E24F00104924DEC660224A8
:100AC0002C67914CAC670124904D2C808D4CE46ECA
:100AD00044F001048B4DEC668C4C241D248844F0BA
:100AE00008048A4D2D1D2C8000BF864C246804F418
:100AF0000014002CF9D04FF40014824D6C60834C2C
:100B0000241D24884FF6F7752C40804D2D1D2C8018
:100B100000E0012070BD10B5142203210020FFF772
:100B200097FE044640217D4801F095F968B11420F4
:100B300000F05BFF4020794914310860012000F08B
:100B400078FF4020754910310860204610BD2DE91E
:100B5000F84F83460E46904616B1B8F1000F02D109
:100B60000120BDE8F88F00245D465BE0301BFF28C4
:100B700001DDFF2701E0301BC7B200BFE8B28DF8EE
:100B80000000280A8DF80100280C8DF80200280EBC
:100B90008DF8030000BF142203210220FFF758FE46
:100BA00008B10120DDE7002208213846FFF750FE9A
:100BB00008B10220D5E7002208210098C0F30740C1
:100BC000FFF746FE8246BAF1000F01D00320C8E7C6
:100BD000002208210098C0F30720FFF739FE08B172
:100BE0000420BEE70099C8B200220821FFF730FEBA
:100BF00008B10520B5E74FF000090EE004EB09014C
:100C000018F8010014220821FFF722FE08B106207F
:100C1000A7E709F1010000F0FF09B945EEDB3D440B
:100C2000E01984B2B442A1DB00209AE72DE9FC5F11
:100C300082460E4691469B4616B1B9F1000F02D18D
:100C40000420BDE8FC9F0024554674E0301BFF28BB
:100C500001DDFF2701E0301BC7B200BFE8B28DF80D
:100C60000400280A8DF80500280C8DF80600280ECF
:100C70008DF8070000BF142203210220FFF7E8FDD2
:100C800008B10420DDE7002208213846FFF7E0FD27
:100C900008B10420D5E7002208210198C0F30740DD
:100CA000FFF7D6FD0090009808B10420C9E70022A4
:100CB00008210198C0F30720FFF7CAFD08B10420FE
:100CC000BFE70199C8B200220821FFF7C1FD08B1B2
:100CD0000420B6E74FF0000828E004EB080119F8FB
:100CE000010014220821FFF7B3FD009004EB080077
:100CF000ABF80000009898B10420A2E71A00002089
:100D00001C00002000000240C80100201404004024
:100D1000FFFF0F00890100201E000020000C014091
:100D20000C98804708F1010000F0FF08B845D4DBBB
:100D30003D44E01984B2B44288DB002081E72DE90C
:100D4000F84782460E46904616B1B8F1000F02D120
:100D50000720BDE8F8870024554657E0301BFF28E0
:100D600001DDFF2701E0301BC7B200BFE8B28DF8FC
:100D70000000280A8DF80100280C8DF80200280ECA
:100D80008DF8030000BF142203210120FFF760FD4E
:100D900008B10620DDE7002208213846FFF758FD9C
:100DA00008B10520D5E7002208210098C0F30740CC
:100DB000FFF74EFD08B10420CBE700220821009880
:100DC000C0F30720FFF744FD08B10320C1E70099F5
:100DD000C8B200220821FFF73BFD08B10220B8E7A6
:100DE0004FF000090DE004EB090101EB08000821B8
:100DF000FFF71EFE08B10120ABE709F1010000F08A
:100E0000FF09B945EFDB3D44E01984B2B442A5DBEC
:100E100000209EE72DE9FF4F81B083460E469146A4
:100E200016B1B9F1000F03D1042005B0BDE8F08F71
:100E300000245D4662E0301BFF2801DDFF2701E052
:100E4000301BC7B200BFE8B28DF80000280A8DF849
:100E50000100280C8DF80200280E8DF8030000BF59
:100E6000142203210120FFF7F3FC08B10420DCE782
:100E7000002208213846FFF7EBFC08B10420D4E734
:100E8000002208210098C0F30740FFF7E1FC08B1F9
:100E90000420CAE7002208210098C0F30720FFF7CA
:100EA000D7FC08B10420C0E70099C8B2002208218D
:100EB000FFF7CEFC08B10420B7E74FF0000818E0B8
:100EC00004EB080101EB09000821FFF7B1FD8246A0
:100ED00004EB080081B204980180BAF1000F04D03D
:100EE000FEA004F035FD04209FE708F1010000F0AA
:100EF000FF08B845E4DB3D44E01984B2B4429ADB14
:100F0000002092E770B504460026F54880684FF649
:100F1000FE710840F24988600A20C86002204860DB
:100F2000F048008840F01100EE490880EC488068E5
:100F300040F00100EA49886001220221E8480830B7
:100F400002F06FFCE848006820F40020E6490860E1
:100F50000020E64908701020E349143108604FF47E
:100F6000FA7000F0AEFDA04700F095FD4FF4FA7066
:100F700000F0A7FDA04700F08EFD1020DA491031E7
:100F80000860002517E01020D749103108604FF4A1
:100F9000FA7000F096FDA04700F07DFD1020D249C8
:100FA000143108604FF4FA7000F08BFDA04700F098
:100FB00072FD681CC5B2042DE5DB002515E010208C
:100FC000C94910310860FA2000F07BFDA04700F00D
:100FD00062FD1020C44914310860FA2000F071FD50
:100FE000A04700F058FD681CC5B2042DE7DBBF48E0
:100FF000007801280FD10021B948443002F005FCE7
:101000004020B9491031086010200860B8A004F0F1
:101010009FFC042070BD1020B3491031086015E01A
:10102000012000F0E2FC701C86B2B6F57A7F0DDD7F
:101030000021AB48443002F0E8FB4020AA491031BF
:101040000860ACA004F084FC0420E3E7A748007823
:101050000028E5D0A848408AB0F5AF6F09DAA64865
:10106000408AB0F5617F04DDA348408AA349088027
:101070000DE000219A48443002F0C7FB40209A4915
:10108000103108609EA004F063FC0420C2E7002237
:1010900002219348083002F0C4FB9348006840F4F2
:1010A0004020914908600020B4E770B50025402039
:1010B0008D4910310860022000F0BBFC40208A49B5
:1010C00014310860012000F0B4FC854880684FF6B8
:1010D000FE710840824988600A20C860022048608A
:1010E0008048008840F011007E4908807C48806874
:1010F00040F001007A49886000207C490870102087
:101100007949143108604FF47A7000F06EFC1020B9
:10111000754910310860002411E010207249103127
:1011200008604FF4FA7000F060FC10206E49143132
:1011300008604FF4FA7000F058FC601CC4B2042C34
:10114000EBDB00240FE01020674910310860FA2023
:1011500000F04BFC1020644914310860FA2000F0C4
:1011600044FC601CC4B2042CEDDB6048007801280C
:1011700011D100215A48443002F047FB0021594860
:10118000203801F097FF40205749103108601020A7
:101190000860002070BD102053491031086017E02E
:1011A000012000F022FC681C85B2B5F57A7F0FDDC6
:1011B00000214B48443002F028FB002149482038E8
:1011C00001F078FF40204849103108600020E1E735
:1011D000464800780028E3D04748408AB0F5AF6F12
:1011E00009DA4548408AB0F5617F04DD4248408A0B
:1011F000424908800FE000213948443002F005FBE5
:1012000000213848203801F055FF40203649103180
:1012100008600020BEE7002202213148083002F0B9
:1012200000FB4FF4AF7000F0E0FB02221421082015
:10123000FFF793FA2C48006840F440202A490860E0
:10124000FFF769FC002829DD264800884FF6EE717B
:10125000084024490880224880684FF6FE71084003
:101260001F498860274800884FF6EE7108402549DD
:1012700008801B48C06E4FF6FE7108401849C866CA
:101280001948006820F4002017490860102016490A
:10129000103108604020086000207BE7C82000F083
:1012A000A4FBA020184908700A4601214FF4FF4012
:1012B000FFF74DFC002843DD0A4800884FF6EE7129
:1012C000084008490880064880684FF6FE710840CB
:1012D000034988600B48008818E00000723700005E
:1012E0000000024020080040000C014014000020D3
:1012F00065310000653200008801002016000020E2
:101300006533000020040040080400204FF6EE7111
:101310000840864908808648C06E4FF6FE71084036
:101320008349C8668348006820F40020814908602A
:10133000102080491031086040200860032029E710
:10134000C82000F052FB40207A4910310860142078
:1013500000F06FFB784A01214FF4FF40FFF7EFFCEC
:10136000764908700846007820B10846017874A0D4
:1013700004F0EEFA7048017874A004F0E9FA6E4ABD
:10138000012147F69970FFF7DAFC6C4908700846AE
:10139000007820B10846017869A004F0D9FA6648BF
:1013A000017871A004F0D4FAB020764908700A469A
:1013B00001214FF4FF40FFF7CAFB002829DD7248E6
:1013C00000884FF6EE7108406F49088058488068E1
:1013D0004FF6FE71084056498860544800884FF621
:1013E000EE710840514908805148C06E4FF6FE71B9
:1013F00008404F49C8664F48006820F400204D4916
:10140000086010204B49103108604020086004201B
:10141000C0E6022208210846FFF79FF9C82000F025
:10142000E4FA0820574908700A46012147F69970E6
:10143000FFF78DFB002829DD534800884FF6EE7139
:101440000840514908803A4880684FF6FE710840CC
:1014500037498860354800884FF6EE7108403349B7
:1014600008803348C06E4FF6FE7108403049C866A8
:101470003048006820F400202E49086010202D49D3
:101480001031086040200860052083E62A4A0121C7
:101490004FF4FF40FFF753FC2849087008460078D6
:1014A00020B10846017826A004F052FA22480178BB
:1014B00026A004F04DFA204A012147F69970FFF763
:1014C0003EFC1E4908700846007820B108460178A5
:1014D0001BA004F03DFA1848017823A004F038FA64
:1014E000012057E610B5B620264908700A460121AA
:1014F0004FF4FF40FFF72BFBFFF70DFB012000F03F
:1015000098FA40200B4914310860012000F091FA4C
:10151000402008491031086010BD10B5022002F0CB
:10152000A3F901201949087010BD000020040040F3
:1015300000000240000C01400802002020000020B2
:10154000446572723A25640D0A0000005357494DF4
:101550005F43535220307830303030374638303A9D
:10156000307825580D0A0000444D5F435352322015
:10157000307830303030374639393A307825580DA8
:101580000A00000008040020200800401400002089
:1015900070B505460C46F448007818B10120F349AF
:1015A00008700EE0F249284604F0B5F9F1490880C8
:1015B000204603F059FE0120EB4908700020EB495A
:1015C000087070BD70B5E848007800281BD0EA4864
:1015D0000078002835D0E9480088402814DD002430
:1015E0000FE0E348005DE6490988E44A1288891A59
:1015F000E44A5054E1480088401EE0490880601CDD
:1016000084B2402CEDDB67E1DC48058800240FE064
:10161000D748005DDA490988D84A1288891AD94A18
:101620005054D6480088401ED4490880601C84B2BB
:10163000AC42EDDB0020D04908700120D24908708F
:101640004AE1CB480078F4287BD1C9484078801E15
:101650000C2877D2DFE800F006192F35763B424A96
:1016600084D2F9F70020C94908700120487002208F
:1016700088700720C8700020087148718871C8718F
:101680000821C24802F06AFA12E1B948807820B90C
:10169000B748C07808B9FFF79DF8B54880780128A9
:1016A00005D1B348C078012801D1FFF79AF800208E
:1016B000B7490870FCE00120B6490870B4490870C9
:1016C000F6E0FFF728FA0020B1490870F0E040206A
:1016D000B14908600020AE490870E9E04020AE49F9
:1016E000091F08600020AA490870E1E0A8480078B6
:1016F00038B1A7480078012803D0A548007804280D
:101700000CD1A3480078A149087000204870887067
:10171000C87004219D4802F021FA20E09C4800781E
:1017200002281CD10120994908700020C8709B48EC
:101730000088FF2807DC99480078487000208870EE
:1017400009E0B6E0B3E095480078904948709348C6
:101750000088000A887004218C4802F0FFF9A7E095
:1017600001208B4908708248C078814989784FF4FC
:101770007F4202EA01210843814908807C48C07900
:101780007B49897902EA01210843794949791202A2
:1017900002EA014108438249086079480088082824
:1017A00020DD01207449087075480088734908805D
:1017B000002411E004F108006D49085C70490988B3
:1017C0006E4A1288891A6F4A50546C480088401E2D
:1017D0006A490880601C84B2082CEBDB02206C494B
:1017E00008700AE0624A0832654801886C4800685F
:1017F000FFF7ADF900206649087059E05C48C078F1
:101800005B4989784FF47F4202EA01210843654928
:1018100008805748C0795649897902EA012108436E
:1018200053494979120202EA014108435E490860BE
:101830005C4800885D49088001205D4908700220ED
:101840005349087034E028E0FFE721E0574800885A
:1018500040280FDD53490988544A1288891A554A8D
:101860008818402102F07AF95048008840384F49E2
:1018700008800DE04D4A11784A4A12884B4B1B886C
:10188000D21A4C4BD01802F069F900204749088061
:10189000464800880028D9D10AE000203B4908705A
:1018A000182048700221394802F058F900E000BFC2
:1018B0000FE02F480078F5280BD12D48407840B92B
:1018C0000020324908700120487002212F4802F0A0
:1018D00045F900202449087070BD08B5FFF772FE75
:1018E0002C480078012808D1AFF22730FFF70AFB17
:1018F00027490870002027490870234800780128EC
:1019000012D1002025490880AFF247300B461D4A0E
:1019100000901B48018822480068FFF787F91C499E
:10192000087000201849087021480078012812D159
:1019300000201A490880AFF273300B461D4A009010
:101940001848018818480068FFF764FA10490870C1
:1019500000201749087005480078012803D10221AA
:101960000846FFF715FE08BD2500002024000020D2
:101970000806002028000020260000203200002059
:1019800030000020480600202F000020480A0020D8
:101990002A0000202E000020140C01402C00002002
:1019A000340000203A000020400000203C000020CD
:1019B00038000020880A002010B56FF0040000F005
:1019C0002AFF474800684749B0FBF1F046490870D4
:1019D0000846007800EB4001C1EBC0104FF6FF71E4
:1019E00001EAC0004149088010BD01463E4A127814
:1019F0004A434FF0E0235A6100229A611A46126965
:101A000042F001021A6100BF4FF0E022106900F0BD
:101A100001021AB100F48032002AF5D04FF0E02222
:101A2000126922F001024FF0E0231A6100229A614C
:101A3000704701462D4A12884A434FF0E0235A610D
:101A400000229A611A46126942F001021A6100BF2F
:101A50004FF0E022106900F001021AB100F4803268
:101A6000002AF5D04FF0E022126922F001024FF077
:101A7000E0231A6100229A6170471C49098841439A
:101A80004FF0E0225161002191611146096941F056
:101A900001011161704700BF4FF0E021086900F0BB
:101AA000010119B100F480310029F5D04FF0E02197
:101AB000096921F001014FF0E022116100219161DB
:101AC00070470949097841434FF0E02251610021F4
:101AD00091611146096941F00101116170470000EF
:101AE0000000002000127A00440000204600002080
:101AF000014600BF704700BF494A128802F0400209
:101B0000002AF9D0C2B2464B1B1D1A80704710B58F
:101B100086B00446012144F2040000F0C5FB4FF4F6
:101B20000070ADF8140003208DF8160018208DF811
:101B3000170005A93B4800F0FBF84FF48060ADF8B2
:101B4000140004208DF8170005A9364800F0F0F8BD
:101B500025208DF8000003208DF801008DF802008B
:101B600001208DF80300684600F00BFE0194002070
:101B7000ADF80800ADF80A00ADF80C00ADF81000A3
:101B80000C20ADF80E0001A9254800F034FC01221C
:101B900040F22551224800F0C6FC0121204800F007
:101BA000B6FC06B010BD10B540F225511C4800F03F
:101BB0009FFD10B31A4800F01BFDC4B21A480088FC
:101BC00000F40040C8B91848008800F4804060B1B3
:101BD0000A2C03D000201449088020E01248008815
:101BE00040F400401049088019E00D2C06D10E4841
:101BF000008840F480400C49088010E00A480088C2
:101C0000C0F30D0009490C5407480088401C0649E0
:101C1000088008460088C72801DD0020088010BD24
:101C200000380140000801404C00002088220020BC
:101C30000948804709480047FEE7FEE7FEE7FEE760
:101C4000FEE7FEE7FEE7FEE7FEE7FEE7044805499C
:101C5000054A064B704700005B030008310100088D
:101C6000F0230020F0290020F0250020F02500209E
:101C700010B50446CC48844208D10121042000F06C
:101C80002DFB0021042000F029FB46E0C7488442D8
:101C900008D10121082000F021FB0021082000F0DC
:101CA0001DFB3AE0C248844208D10121102000F017
:101CB00015FB0021102000F011FB2EE0BD488442EE
:101CC00008D10121202000F009FB0021202000F094
:101CD00005FB22E0B848844208D10121402000F0F1
:101CE000FDFA0021402000F0F9FA16E0B3488442E2
:101CF00008D10121802000F0F1FA0021802000F0BD
:101D0000EDFA0AE0AE48844207D10121801500F0C7
:101D1000E5FA0021A01500F0E1FA10BD10B501218F
:101D2000084600F0DBFA0021012000F0D7FA10BDD0
:101D30002DE9F04102460025002600200023002462
:101D4000002791F803C00CF00F0591F803C00CF0C8
:101D5000100CBCF1000F03D091F802C04CEA05054D
:101D600091F800C0BCF1000F31D0146800202BE0C6
:101D70004FF0010C0CFA00F3B1F800C00CEA0306B6
:101D80009E4220D183004FF00F0C0CFA03F7BC43A6
:101D900005FA03FC4CEA040491F803C0BCF1280FD7
:101DA00006D14FF0010C0CFA00FCC2F814C00AE096
:101DB00091F803C0BCF1480F05D14FF0010C0CFAAB
:101DC00000FCC2F810C0401C0828D1D31460B1F840
:101DD00000C0BCF1FF0F34DD546800202EE000F19C
:101DE000080C4FF0010808FA0CF3B1F800C00CEA37
:101DF00003069E4221D183004FF00F0C0CFA03F72B
:101E0000BC4305FA03FC4CEA040491F803C0BCF19E
:101E1000280F05D100F1080C08FA0CF8C2F814805C
:101E200091F803C0BCF1480F07D100F1080C4FF046
:101E3000010808FA0CF8C2F81080401C0828CED31C
:101E40005460BDE8F0814FF6FF710180022181707E
:101E50000421C17070470246002093680B400BB10B
:101E6000012000E0002070470146886880B270477A
:101E700002460020D3680B400BB1012000E0002097
:101E800070470146C86880B2704701617047416180
:101E900070470AB1016100E041617047C16070475D
:101EA0004FF480320A438261816182618269826972
:101EB000704702460020434B18684FF68073184065
:101EC00040EA021008433F4B186070473E49C86122
:101ED0007047F0B50A46002300240021002500F0D9
:101EE0000046B6F1004F02D1364EF16901E0354EA1
:101EF0007168C0F3034583B200F44016B6F5401F85
:101F000008D121F070612F4E766826F070662D4F53
:101F10007E6012E000F48016B6F5801F06D103261D
:101F200006FA05F4A14341F0706106E0460D360162
:101F300003FA06F6B14341F0706122B1460D360155
:101F400003FA06F6314300F00046B6F1004F02D125
:101F50001C4EF16101E01B4E7160F0BD30B50022F6
:101F60008B071C0F0F2303FA04F2164B08338C1057
:101F700053F824309343134C08348D1044F8253023
:101F800023468C1053F824308C07240F00FA04F4F5
:101F900023430C4C08348D1044F8253030BD0A49D9
:101FA000DC3108607047000000080140000C01406F
:101FB000001001400014014000180140001C0140C5
:101FC000002001400000014000002042DF4800687E
:101FD00040F00100DD49086008464068DC490840DF
:101FE000DA49486008460068DA490840D74908607D
:101FF0000846006820F4802008600846406820F405
:10200000FE0048604FF41F0088607047CF490968A0
:1020100021F48031CD4A11601146096821F48021F4
:102020001160B0F5803F03D0B0F5802F0ED106E0EF
:10203000C649096841F48031C44A116007E0C349C8
:10204000096841F4A021C14A116000E000BF00BF4F
:10205000704710B501460022002300204A11012AD2
:1020600002D1BA4C236806E0022A02D1B74C236A97
:1020700001E0B64C636A01F01F02012494401C4049
:102080000CB1012000E0002010BD38B50020009008
:102090000024002500BF3120FFF7DBFF0546009834
:1020A000401C00900098B0F5A06F01D0002DF2D038
:1020B0003120FFF7CEFF08B1012400E000242046C4
:1020C00038BD01460020A14A106820F0F80040EA1F
:1020D000C10010607047A0490860704702460020A8
:1020E0009A4B586820F47C1042EA01031843974B3E
:1020F0005860704798490866704701460020934A27
:10210000506820F003000843506070478F484068D3
:1021100000F00C007047014600208C4A506820F007
:10212000F00008435060704701460020874A50681D
:1021300020F4E06008435060704701460020834A65
:10214000506820F4605040EAC1005060704729B1E7
:102150007E4A527A02437D4B5A7204E07B4A527A9D
:1021600082437A4B5A7270477B49D8310860704776
:1021700001460020754A506820F4404008435060F2
:1021800070470021714A20321170704A82F8201085
:10219000012802D004280AD104E001216B4A203230
:1021A000117005E00521694A2032117000E000BF7E
:1021B00000BF70476949086070476449096A014374
:1021C000624A11627047654944390860704730B50A
:1021D00000210022002400235C4D6D6805F00C01F5
:1021E00021B1042905D0082923D105E05C4D056003
:1021F00022E05B4D05601FE0544D6D6805F47012E0
:10220000524D6D6805F48034022505EB92421CB9ED
:10221000544D554305600BE04C4D6D6805F4003599
:102220001DB1504D5543056002E04D4D55430560CD
:1022300002E04B4D056000BF00BF444D6D6805F0E6
:10224000F0010909484D6B5C0568DD4045603F4D74
:102250006D6805F4E061090A434D6B5C4568DD403B
:1022600085603A4D6D6805F46051C90A3E4D6B5C5E
:102270004568DD40C560354D6D6805F44041890B0A
:102280003A4D6B5CC568B5FBF3F5056130BD29B10E
:102290002E4A526902432D4B5A6104E02B4A52697F
:1022A00082432A4B5A61704729B1284A92690243F6
:1022B000264B9A6104E0254A92698243234B9A6136
:1022C000704729B1214AD2690243204BDA6104E008
:1022D0001E4AD26982431D4BDA61704729B11B4AFD
:1022E000D2680243194BDA6004E0184AD26882438C
:1022F000164BDA60704729B1144A12690243134B36
:102300001A6104E0114A12698243104B1A61704746
:1023100012494039086070470F49C86470470B493B
:10232000C87170470948406A40F0807007494862A8
:10233000704701460020054A92680A400AB1012010
:1023400000E0002070470149887270470010024089
:102350000000FFF8FFFFF6FE000042428004424208
:1023600000127A0000093D004E0000205E000020AF
:1023700010B50446FB48844209D101218803FFF7C8
:10238000ADFF00214FF48040FFF7A8FF32E0F64890
:10239000844209D101214804FFF7ADFF00214FF429
:1023A0000030FFF7A8FF25E0F048844209D1012161
:1023B0008804FFF7A0FF00214FF48020FFF79BFF68
:1023C00018E0EB48844209D10121C804FFF793FFCC
:1023D00000214FF40020FFF78EFF0BE0E548844218
:1023E00008D101210805FFF786FF00214FF4801076
:1023F000FFF781FF10BD2DE9F04786B005460E4678
:102400000024A24600BFA1460027B08900B100BF4A
:102410002F462C8A4CF6FF700440F08804432C822F
:10242000AC894EF6F3100440B088318908437189B5
:1024300008430443AC81AC8A4FF6FF400440B089A6
:102440000443AC8201A8FFF7C2FEC648874202D10E
:10245000DDF810A001E0DDF80CA0A88900F4004030
:1024600040B10AEBCA0000EB0A1031684900B0FB2A
:10247000F1F807E00AEBCA0000EB0A1031688900A6
:10248000B0FBF1F86420B8FBF0F0040120096421EE
:1024900001FB1089A88900F4004040B1322000EB14
:1024A000C900B0FBF1F000F00700044308E032205F
:1024B00000EB09106421B0FBF1F000F00F000443C1
:1024C0002C8106B0BDE8F0874FF416510160002161
:1024D0008180C18001810C2141810021818170476F
:1024E00010B502460020108A4FF2FF0318400B88F7
:1024F0004C8823438C882343CC8823431843108281
:1025000010BD0021018041808180C180704721B1D0
:10251000828942F40052828104E082894DF6FF7381
:102520001A4082817047F0B503460024002600253A
:10253000002040F66A17B94200D100BF1846C1F327
:10254000421401F01F06012707FA06F5012C01D1FC
:102550000C3004E0022C01D1103000E014301AB12C
:1025600007682F43076002E00768AF430760F0BDCC
:102570001AB1838A0B43838202E0838A8B4383826E
:102580007047028A4FF6F0731A400282028A0A43A9
:102590000282704782894FF2FF731A4082818289DA
:1025A0000A438281704721B1828942F0020282810E
:1025B00004E082894FF6FD731A4082817047028AD7
:1025C0004FF6DF731A400282028A0A430282704782
:1025D00021B1028A42F48042028204E0028A4BF670
:1025E000FF731A4002827047C1F30802828070476D
:1025F00001468888C0F308007047818941F00101D5
:1026000081817047028BD2B20283028B42EA01229F
:1026100002837047028B02F47F420283028B0A43DB
:102620000283704721B1828A42F02002828204E054
:10263000828A4FF6DF731A408282704721B1828A04
:1026400042F01002828204E0828A4FF6EF731A4051
:102650008282704721B1828A42F00802828204E0BD
:10266000828A4FF6F7731A408282704721B18289BD
:1026700042F40042828103E08289C2F30E02828129
:10268000704721B1828A42F40062828204E0828A29
:102690004FF2FF731A4082827047828A4FF6FB73B3
:1026A0001A408282828A0A438282704721B1828ADA
:1026B00042F00202828204E0828A4FF6FD731A40E1
:1026C0008282704702460020B1F5007F00D100BF32
:1026D00013880B400BB1012000E00020704701F48B
:1026E0000072B2F5007F00D100BFCA43028070477C
:1026F00070B50246002400230025002040F66A162B
:10270000B14200D100BFC1F3421501F01F03012601
:1027100006FA03F3012D02D19689334006E0022D1B
:1027200002D1168A334001E0968A33400C1201260A
:1027300006FA04F41688344013B10CB1012000E00D
:10274000002070BD10B50022002340F66A14A1429B
:1027500000D100BF0A1201249440A3B2DC430480DC
:1027600010BD000000380140004400400048004017
:10277000004C00400050004031490143314A116093
:10278000704770B5002100230F22C47804B32D4C8C
:10279000246804F4E064C4F5E064210AC1F1040390
:1027A000CA40447804FA03F18478144021430901B3
:1027B000254C0678A155047804F01F050124AC408F
:1027C00005786D11AD0005F1E025C5F8004109E07F
:1027D000047804F01F050124AC401C4D06787611E6
:1027E00045F8264070BD1A4A0A400243154B1B1F8C
:1027F0001A60704739B1134A121D12680243114B17
:102800001B1D1A6006E00F4A121D126882430D4B11
:102810001B1D1A607047042808D14FF0E021096998
:1028200041F004014FF0E022116107E04FF0E02198
:10283000096921F004014FF0E022116170470000A6
:102840000000FA050CED00E000E400E080E100E0AB
:1028500080FFFF1F10B50446FE48844208D10121C5
:10286000C014FFF73BFD0021E014FFF737FDC4E083
:10287000B4F1804F08D101210846FFF73CFD00214B
:102880000120FFF738FDB8E0F348844208D1012168
:102890000220FFF730FD00210220FFF72CFDACE005
:1028A000EE48844208D101210420FFF724FD0021D5
:1028B0000420FFF720FDA0E0E948844208D101216F
:1028C0000820FFF718FD00210820FFF714FD94E011
:1028D000E448844208D101211020FFF70CFD0021BB
:1028E0001020FFF708FD88E0DF48844208D101216D
:1028F0002020FFF700FD00212020FFF7FCFC7CE0FA
:10290000DA48844208D101214014FFF7E7FC002196
:102910006014FFF7E3FC70E0D548844209D101213F
:10292000C804FFF7DBFC00214FF40020FFF7D6FCC2
:1029300063E0D048844209D101210805FFF7CEFCAD
:1029400000214FF48010FFF7C9FC56E0CA488442CA
:1029500009D101214805FFF7C1FC00214FF4001007
:10296000FFF7BCFC49E0C548844208D10121402062
:10297000FFF7C1FC00214020FFF7BDFC3DE0C0484F
:10298000844208D101218020FFF7B5FC002180207E
:10299000FFF7B1FC31E0BB48844208D1012180152A
:1029A000FFF7A9FC0021A015FFF7A5FC25E0B6481C
:1029B000844209D101210804FFF790FC00214FF463
:1029C0008030FFF78BFC18E0B048844209D1012128
:1029D0004804FFF783FC00214FF40030FFF77EFC32
:1029E0000BE0AB48844208D101218804FFF776FC54
:1029F00000214FF48020FFF771FC10BD00220288F7
:102A0000944B98420ED0994B98420BD0B0F1804F26
:102A100008D0914B984205D0904B984202D0904BF1
:102A2000984204D14FF68F731A404B881A438D4B4E
:102A3000984207D08C4B984204D04FF6FF431A407F
:102A4000CB881A4302808B8883850B880385814B52
:102A500098420BD0854B984208D08B4B984205D0BA
:102A60008A4B984202D08A4B984201D10B7A038656
:102A700001238382704770B5002400220023058C57
:102A80004FF6FE7635400584028C8388048B4FF622
:102A90008F752C40B51E2C400D882C43751E2A4086
:102AA0000D892A434D882A436A4DA8420BD06F4DA9
:102AB000A84208D0744DA84205D0744DA84202D057
:102AC000734DA84213D14FF6F7752A404D892A431A
:102AD0004FF6FB752A408D882A434FF6FF652B4041
:102AE0004FF6FF552B408D892B43CD892B43838097
:102AF0000483CD888586028470BD70B500240022D1
:102B00000023058C4FF6EF7635400584028C8388D0
:102B1000048B48F6FF752C404FF6FF452C400D887E
:102B20004FF6FF7606EA05252C434FF6DF752A405F
:102B30000D8906EA05152A434D8806EA05152A433C
:102B4000444DA84202D0494DA8421DD14FF67F7591
:102B50002A404D894FF6FF7606EA05152A434FF6BF
:102B6000BF752A408D8806EA05152A434FF6FF35C2
:102B70002B404FF2FF752B408D8906EA85052B43CC
:102B8000CD8906EA85052B4383800483CD8805879C
:102B9000028470BD70B5002400220023058C4FF61E
:102BA000FF6635400584028C8388848B4FF68F75D1
:102BB0002C404FF6FC752C400D882C434FF6FF55EA
:102BC0002A400D894FF6FF7606EA05252A434D88EF
:102BD00006EA05252A431F4DA84202D0234DA842EC
:102BE0001DD14FF2FF752A404D894FF6FF7606EA58
:102BF00005252A434FF6FF352A408D8806EA05252C
:102C00002A434EF6FF752B404DF6FF752B408D89FC
:102C100006EA05152B43CD8906EA05152B4383806B
:102C20008483CD888587028470BD70B5002200231F
:102C30000024058C4EF6FF7635400584038C84888D
:102C4000828B48F6FF752A404FF6FF452A400D88D3
:102C500020E00000002C014000040040000800407B
:102C6000000C0040001000400014004000340140FF
:102C7000004C014000500140005401400018004049
:102C8000001C004000200040004001400044014082
:102C9000004801404FF6FF7606EA05252A434DF627
:102CA000FF752B400D8906EA05352B434D8806EA52
:102CB00005352B43FA4DA84202D0FA4DA84208D15F
:102CC0004BF6FF752C408D894FF6FF7606EA851589
:102CD0002C4384808283CD88A0F84050038470BD4B
:102CE000828B4FF2FF331A408283828B4FF6FF7341
:102CF00003EA01231A4382837047F0B50C46154658
:102D0000002200210026078C4EF6FF7C07EA0C0704
:102D10000784828B018C4FF6FF7707EA043640F672
:102D2000FF473A404FF6FF7707EA05273A434FF649
:102D3000FF7707EA03373A43D94FB8420ED0D94F4D
:102D4000B8420BD0B0F1804F08D0D74FB84205D071
:102D5000D64FB84202D0D64FB84206D14DF6FF77D3
:102D6000394046F48057394305E047F6FF5739406C
:102D700044F48057394382830184F0BD828B4FF63F
:102D8000F3731A408283828B0A4382837047F0B5C3
:102D90000C461546002200210026078C4FF6FF6CDA
:102DA00007EA0C070784828B018C4FF6FF7707EA4E
:102DB00004264FF60C773A404FF6FF7707EA0317E1
:102DC0002F433A43B64FB8420ED0B64FB8420BD05D
:102DD000B0F1804F08D0B44FB84205D0B34FB842DD
:102DE00002D0B34FB84206D14FF6FF57394046F4F0
:102DF0008077394305E04FF2FF57394044F480773C
:102E0000394382830184F0BD028B4FF2FF331A40B5
:102E10000283028B4FF6FF7303EA01231A430283F6
:102E20007047F0B50C461546002200210026078C9D
:102E30004FF6EF7C07EA0C070784028B018C4FF6F4
:102E4000FF7707EA041640F6FF473A404FF6FF7750
:102E500007EA03373A434FF6FF7707EA05273A4375
:102E60008F4FB8420ED08F4FB8420BD0B0F1804F89
:102E700008D08D4FB84205D08C4FB84202D08C4F4D
:102E8000B84206D14FF6DF77394046F01007394394
:102E900005E04FF65F77394044F01007394302836D
:102EA0000184F0BD028B4FF6F3731A400283028B4C
:102EB0000A4302837047F0B50C46154600220021F4
:102EC000068C4FF6FE773E400684028B018C4FF64F
:102ED0000C7632407E1C06EA03162E433243704EB7
:102EE000B0420ED06F4EB0420BD0B0F1804F08D040
:102EF0006D4EB04205D06D4EB04202D06C4EB04225
:102F000006D14FF6FD76314044F00106314305E02D
:102F10004FF6F576314044F00106314302830184D7
:102F2000F0BD70B505460C465D4885420ED05D4843
:102F300085420BD0B5F1804F08D05B48854205D063
:102F40005A48854202D05A48854200D100E000BF6D
:102F5000208850B92389A28861882846FFF7ABFFF3
:102F6000E1882846FFF79EFF25E0208804280AD143
:102F70002389A28861882846FFF753FFE188284605
:102F8000FFF742FF17E0208808280AD12389A2888A
:102F900061882846FFF7FBFEE1882846FFF7EEFE32
:102FA00009E02389A28861882846FFF7A6FEE18808
:102FB0002846FFF795FE70BD2DE9F04105460C4609
:102FC00000260127608808B9022600E00026A088B4
:102FD000012801D1022700E001272088A0B9238918
:102FE000A28861882846FFF766FFE1882846FFF738
:102FF00059FF23893A4631462846FFF712FFE188F8
:103000002846FFF701FF13E02389A288618828463C
:10301000FFF707FFE1882846FFF7F6FE23893A46C7
:1030200031462846FFF747FFE1882846FFF73AFF79
:10303000BDE8F0810A884B881A438B881A43CB88F5
:103040001A430B891A434B891A438B891A43A0F8F8
:10305000442070474FF6FF71818000210180C180BC
:103060004180017270470021018041808180C180D0
:10307000018141818181C1817047002101804180AE
:10308000012181800021C1800181704700210180E0
:1030900041808180C1800181418181817047000030
:1030A000002C0140003401400004004000080040B2
:1030B000000C004021B1028842F00102028004E0CD
:1030C00002884FF6FE731A400280704731B1B0F8A3
:1030D000442042F40042A0F8442005E0B0F8442027
:1030E000C2F30E02A0F8442070471AB183890B4343
:1030F000838102E083898B4383817047818270479B
:1031000041EA0203A0F8483070471AB183890B43A3
:10311000838102E083898B438381704701894FF665
:10312000F8721140018170470A46002101894FF66B
:103130008F73194011430181704730B504460D4625
:1031400029462046FFF7F0FF208940F00700208144
:1031500030BD2DE9F04104460D4616461F46602D50
:1031600006D13B46012231462046FFF75AFE05E0D4
:103170003B46012231462046FFF79DFE2946204668
:10318000FFF7D2FF208940F007002081BDE8F081E1
:1031900030B50C4600210189C9B24FF6FF7505EA2A
:1031A0000325154325432943018130BD2DE9F04115
:1031B00005460E4617469846002443463A46314691
:1031C0002846FFF7E5FF2C894FF6F870044044F0DD
:1031D00007044FF68F70044044F070042C81BDE862
:1031E000F081F0B504460D4616461F463B46324672
:1031F00029462046FFF7CCFF208940F480402081FB
:10320000F0BD0185828270470A46002101884FF691
:103210008F731940114301807047F0B50C46154675
:103220001E460021002200230189028B038C4FF6E9
:10323000F877394021434FF6FC473A4040F20117F6
:103240003A434FF6DD773B404FF6FF7707EA061724
:103250002F433B43018102830384F0BD0A460021D2
:10326000018B4FF68F7319401143018370470A4653
:103270000021018B48F6FF7319404FF6FF7303EAF4
:1032800002231943018370470A460021818B4FF6C0
:103290008F7319401143818370470A460021818B47
:1032A00048F6FF7319404FF6FF7303EA02231943F0
:1032B0008183704721B1028842F08002028004E0DD
:1032C00002884FF67F731A400280704721B18288CE
:1032D00042F00402828004E082884FF6FB731A40B9
:1032E0008280704721B1828842F00802828004E027
:1032F00082884FF6F7731A408280704721B1828826
:1033000042F00102828004E082884FF6FE731A4088
:10331000828070470A460021018B4FF6F7731940EF
:103320001143018370470A460021018B4FF2FF735E
:1033300019404FF6FF7303EA0223194301837047D4
:103340000A460021818B4FF6F773194011438183A0
:1033500070470A460021818B4FF2FF7319404FF6E8
:10336000FF7303EA02231943818370470A46002151
:10337000018B4FF6FB7319401143018370470A46D6
:103380000021018B4FF6FF3319404FF6FF7303EA1C
:1033900002231943018370470A460021818B4FF6AF
:1033A000FB7319401143818370470A460021818BCA
:1033B0004FF6FF3319404FF6FF7303EA0223194318
:1033C000818370470A460021018B4FF67F731940B5
:1033D0001143018370470A460021018BC1F30E019E
:1033E0004FF6FF7303EA02231943018370470A462D
:1033F0000021818B4FF67F73194011438183704701
:103400000A460021818BC1F30E014FF6FF7303EAD8
:1034100002231943818370470A460021018C4FF62D
:10342000FD7319401143018470470A460021018C45
:103430004FF6F77319401143018470470A46002183
:10344000018C4FF6DF7319404FF6FF7303EA021346
:103450001943018470470A460021018C4FF67F739F
:1034600019404FF6FF7303EA0213194301847047B2
:103470000A460021018C4FF6FF5319404FF6FF73A7
:1034800003EA02231943018470470A460021018C94
:103490004FF2FF7319404FF6FF7303EA02231943FB
:1034A000018470470A460021018C4DF6FF731940D4
:1034B0004FF6FF7303EA023319430184704730B5B6
:1034C000002301248C40A3B2048C9C430484048C0C
:1034D00002FA01F5ADB22C43048430BD30B50023AF
:1034E00004248C40A3B2048C9C430484048C02FA10
:1034F00001F5ADB22C43048430BD70B50346002005
:1035000000241846183001258D40ACB21D8CA5430F
:103510001D8409B1082909D100EB6100056825F077
:10352000700505600568154305600EE00D1FC5F3C5
:103530004E052844056825F4E045056005684FF60A
:10354000FF7606EA02263543056070BD21B1028888
:1035500042F00202028004E002884FF6FD731A4036
:103560000280704721B1028842F00402028004E028
:1035700002884FF6FB731A400280704721B182889F
:1035800042F08002828004E082884FF67F731A4006
:103590008280704702884FF6F7731A4002800288D3
:1035A0000A430280704782884FF68F731A408280E8
:1035B00082880A438280704702894FF6F8731A4066
:1035C000028102890A430281704702894FF67F73A4
:1035D0001A40028102890A43028170478184704740
:1035E0008185704781867047018770478187704762
:1035F000A0F84010704702884FF6FF431A4002803F
:1036000002880A43028070470146888E704701464F
:10361000088F70470146888F70470146B1F8400017
:1036200070470146888C70470146088D70470246F6
:103630000020138A0B400BB1012000E000207047EE
:10364000CA430282704730B502460020002300249E
:10365000158A05EA0103958905EA010413B10CB145
:10366000012000E0002030BDCA4302827047000004
:1036700001684FF6FE721140016000210160416057
:103680008160C1608D49884208D18C4908394968F8
:1036900041F00F01894A083A51608AE087491431A4
:1036A000884208D185490839496841F0F001834AC8
:1036B000083A51607DE081492831884208D17F492C
:1036C0000839496841F470617C4A083A516070E0F9
:1036D0007A493C31884208D178490839496841F42F
:1036E0007041764A083A516063E07449503188422B
:1036F00008D172490839496841F470216F4A083A83
:10370000516056E06D496431884208D16B490839EF
:10371000496841F47001694A083A516049E06749D3
:103720007831884208D165490839496841F07061AB
:10373000624A083A51603CE06149884206D1011F63
:10374000096841F00F01021F116032E05C49143139
:10375000884208D15A49091F096841F0F001584AC6
:10376000121F116025E056492831884208D154497A
:10377000091F096841F47061514A121F116018E075
:103780004F493C31884208D14D49091F096841F42D
:1037900070414B4A121F11600BE049495031884279
:1037A00007D14749091F096841F47021444A121F93
:1037B0001160704710B50022026847F6F0739A4313
:1037C0000C6A8B6823430C6923434C6923438C693F
:1037D0002343CC6923434C6A23438C6A23431A4313
:1037E0000260CB6843600B6883604B68C36010BDA8
:1037F0000021016041608160C160016141618161BE
:10380000C161016241628162704721B1026842F088
:103810000102026004E002684FF6FE731A40026083
:1038200070471AB103680B43036002E003688B43DF
:1038300003607047416070470146486880B2704736
:1038400001460020002201F080531BB11C4B083BB5
:103850001A6802E0194B083B1A6802EA01030BB12F
:10386000012000E00020704700F0805119B1144998
:10387000091F086002E01149083948607047014695
:103880000020002201F080531BB10D4B083B1A6849
:1038900002E00A4B083B1A6802EA01030BB101205F
:1038A00000E00020704700F0805119B10449091F61
:1038B000086002E00149083948607047080002408A
:1038C00008040240002044490860091D0860091DE1
:1038D0000860091D086041483F491431086070477D
:1038E00000213D498279002A3AD00A4612680368CD
:1038F0009A430B461A600A1D126803689A430B1D0F
:103900001A60027911440A6803681A430A60324A4D
:103910000832126803689A432F4B08331A601A1D45
:10392000126803689A432C4B0C331A604279102AB0
:103930000ED11A1F126803681A43274B08331A6006
:103940001A1D126803681A43234B0C331A600DE0EA
:103950002149427911440A6803681A430A6005E064
:10396000027911440A6803689A430A60704700218B
:10397000016001710C21417100218171704716496C
:10398000103109680143144A103211607047014632
:103990000020114A143212680A400AB1012000E0E6
:1039A000002070470C491431086070470146002020
:1039B0000022094B1B6803EA0102074B14331B6802
:1039C0000B4013B10AB1012000E00020704702490A
:1039D000143108607047000000040140FFFF0F0031
:1039E00010B54FF48020FFF7F2FF10BD10B500F0C6
:1039F000E3F810BD10B50020FEF7B6FB0121C805A5
:103A0000FEF75FFC10BD0320494908607047494834
:103A1000817A19B10521464A116002E00121444A28
:103A2000116070470EB54FF48020FFF7D0FF4FF4C0
:103A30008020009008208DF8050001208DF80600F8
:103A40006846FFF74DFF14208DF8080001208DF81F
:103A5000090000208DF80A0001208DF80B0002A853
:103A6000FEF78FFE2A208DF8080000208DF809004F
:103A700002A8FEF786FE0EBD704710B50446012170
:103A80000420FEF711FC3CB12B48006880B220F006
:103A900002002949086014E02748006880B240F01D
:103AA0000200254908602548006820F47F2023494A
:103AB00008600846006840F44C3008600020204947
:103AC000086010BD30B50B46002100BF16E00A2487
:103AD000B4EB107F05D9302404EB107403F81140C7
:103AE00005E0412404EB10740A3C03F81140000186
:103AF00000254C00641C1D554C1CE1B29142E6DBD4
:103B000030BD70B50F480468001D0568001D0668CB
:103B1000344454B108220C492046FFF7D3FF042255
:103B2000094910312846FFF7CDFF70BD01207047CD
:103B30006001002070230020405C00400408014028
:103B4000B0012142E8F7FF1F64000020704710B564
:103B500002210846FDF71CFD10BD704770B50546F3
:103B60000C4600BF012001F055FB2028FAD1224667
:103B7000C021284601F078FA2146012001F0D5FC49
:103B8000012001F059FB70BD00B509480068052807
:103B90000CD1084801680068401C064A10600529DD
:103BA00004D1002011460860FFF7D0FF00BD0000DF
:103BB000600100207C00002010B588B00024694816
:103BC0000068694908800846008800F40070674969
:103BD0000988084050B14FF6FF50624908606448B8
:103BE0000078401C62490870FFF7CEFF5E480088ED
:103BF00000F400405D490988084008B101F096F8DA
:103C00005948008800F4806058490988084030B15C
:103C10004FF6FF305349086056494868804752487C
:103C2000008800F4005051490988084018B14DF649
:103C3000FF704C4908604C48008800F480504B49A4
:103C40000988084030B14EF6FF70464908600020F0
:103C500000F039FA4448008800F4006043490988BC
:103C6000084060B14448007810B100F0D6F902E095
:103C7000022000F028FA4FF2FF703A4908603A48F3
:103C8000008800F48070394909880840002866D00F
:103C90004FF6FF6033490860081D006800F40040DB
:103CA000002856D035480068401C34490860084652
:103CB0000068032850D92B48001F006800F0080056
:103CC000002849D12748001F006880B22C490860AD
:103CD000002408E02B4901EB8400D0F8000C80B2EE
:103CE0004DF82400641C082CF4D32548006840F0EB
:103CF0000100234908600846006880B21949091F7D
:103D000008601F48006820F001001D49086008464F
:103D1000006880B21349091F086000BF114800689D
:103D200000F480600028F9D04FF6FF300D4908609C
:103D3000002408E05DF8240080B2124A02EB8401FE
:103D4000C1F8000C641C082CF4D300200B49086057
:103D500002E0002009490860072000F0B4F908B02B
:103D600010BD0000445C0040800000207E01002067
:103D700082000020D4000020640100208400002084
:103D8000880000200050004010B5FFF7BAFE002068
:103D900083490968887200F017F901F097FD002047
:103DA0008049086010BD10B500207D4909688872FF
:103DB0007D48C0797A4909684872002078490968C5
:103DC000C87201F09DF94FF40071002001F0B2F9C2
:103DD0001021002001F0C7F94021002001F081FBF3
:103DE0008021002001F071FB002001F079FA6F487A
:103DF00090F82C10002001F0BAFB002001F034FAFA
:103E00000021012001F096F9C021012001F05DFBA5
:103E10002021012001F0A7F90021012001F0C1F9C2
:103E20000021022001F086F94FF4A071022001F078
:103E300058FB4021022001F09AFB4FF44051022030
:103E400001F0AFF90021022001F08DF900210320DB
:103E500001F070F94FF4C071032001F036FB20210E
:103E6000032001F080F90021032001F09AF90020DD
:103E700000F0AFFE01204B49086010BD4C48817A2C
:103E800011B10521474A1160704704204549086077
:103E9000704710B547480078202804D1FFF746FE48
:103EA00000204449087010BD7047014629B9082018
:103EB0003B4A12681082002070473F48FCE70146E9
:103EC00029B90820364A12681082002070473A4803
:103ED000FCE770B504460025212C09D13048006864
:103EE000007800F07F00212810D1AFF22D050DE001
:103EF000202C0BD12A480068007800F07F00212890
:103F000001D1AFF2590520202A4908700DB90220CD
:103F100070BD234800688561002121480068418206
:103F20000020A8470020F3E701461D4800680078FC
:103F300000F07F00212807D1022901D1002070471D
:103F4000222901D10020FAE70220F8E710B5044643
:103F50001A49204600F033FB10BD10B5044618493D
:103F6000204600F02CFB10BD70B505460C480068DB
:103F7000C478042C01DD002070BD124800EBC401A0
:103F8000284600F01CFBF7E70246002901DD02206D
:103F90007047012A01DD0220FAE70020F8E700005F
:103FA00074010020600100202A5C0008D400002079
:103FB00070230020C4000020C80000202801002039
:103FC000300100203801002010B50120FFF754FD1A
:103FD00001246D48046000206C4908800846008870
:103FE000694908600020091D08604FF4E0506749E6
:103FF00008800846008864490860002010BD10B59C
:104000000120614908600020091D0860FFF734FDA8
:1040100003205D490860002010BD38B50025002050
:1040200000905948006884B200BF09E0584901EB8C
:104030008500D0F8000C80B2564941F825006D1C6F
:10404000082DF3D344F480644F48046044F0010425
:10405000046024F00104046000BF4B48001D0068A8
:1040600000F480600028F8D04FF6FF304649091D63
:104070000860002509E0474850F8250080B2444A0E
:1040800002EB8501C1F8000C6D1C082DF3D344F040
:1040900008043D480460006884B244F004043A48CF
:1040A0000460FFF7B0FC38BD10B53748006884B233
:1040B00024F0040434480460FFF7A9FC4FF43F40A7
:1040C0003149086010BD70B50546072D01D0324852
:1040D00005703148007808284ED2DFE800F004115E
:1040E0001A202B384E4F2D48006828B9FFF7DCFF07
:1040F00006202949087002E005202749087041E0A0
:10410000FFF7D2FF042024490870012023490860EA
:1041100038E00220204948700320087032E01E4831
:104120004078401E1C4948700846407808B9042071
:10413000087027E01448006884B244F01004124864
:1041400004600520144908700A2048701AE01248DB
:104150004078401E104948700846407858B90A48CF
:10416000006884B224F01004074804600620087038
:1041700000200A49086005E000BF00BF062006498C
:10418000087000BF00BF70BD405C00407E01002091
:1041900000500040502300206501002068010020ED
:1041A00010B504462CB90120F649096808820020A0
:1041B00010BDF549096808688047F24800680A3070
:1041C000F6E710B5EF480068C078F04949788842B2
:1041D00013DCEC480068807878B9EA480068808889
:1041E00058B9E8480068C078E64909688872E64925
:1041F000096848688047002010BD0220FCE710B520
:1042000004462CB90120DF4909680882002010BD4E
:10421000DD49096888688047DA4800680C30F6E7AD
:1042200010B5D84B1B68D978D64B1B685879D84B3A
:104230001B689A6990470446D2480068807AE8B1C2
:104240003CB9D0480068007918B9CE480068807839
:1042500008B1022010BD8CB9CB490968C8688047F5
:10426000C84800684079C7490968C872C5480068ED
:10427000C078C449096808730020EBE70220E9E729
:1042800010B504462CB90220BE49096808820020F6
:1042900010BD0020BF490880BA480068007800F0CF
:1042A0007F0018BBB7490968487A00F0200131B196
:1042B000B849097841F00201B64A117005E0B549E4
:1042C000097801F0FD01B34A117000F0400131B1ED
:1042D000B049097841F00101AE4A117005E0AD49DD
:1042E000097801F0FE01AB4A11703AE0A548006878
:1042F000007800F07F00012801D1A648C8E7A14856
:104300000068007800F07F00022828D19D4A1268DA
:10431000517901F00F0001F080027AB19E4B03EB5E
:104320008002D2F8002C02F03002102A16D1994AED
:10433000127842F00102974B1A700FE0964B03EB94
:104340008002D2F8002C02F44052B2F5805F05D111
:10435000904A127842F001028E4B1A7001E0002060
:1043600096E789490968086980478A4890E72DE9F6
:10437000F04784480068007800F07F08B8F1000F2B
:104380000AD180480068407A00F0DF007D49096862
:1043900048720020BDE8F087B8F1020F7ED179485D
:1043A0000068408818B977480068007908B1022091
:1043B000F0E7DFF8D89173480068477927F0800567
:1043C0002C4670480068407900F0800038B172498E
:1043D00001EB8400D0F8000C00F0300606E06E49D6
:1043E00001EB8400D0F8000C00F4405699F800006E
:1043F000A84204D91EB163480068807A08B9022037
:10440000C8E707F0800080B1634901EB8400D0F871
:10441000000C00F0300010284BD1E0B201F01DF884
:10442000E0B2302100F09FFE43E05B4901EB8400E5
:10443000D0F8000C00F44050B0F5805F39D1E4B9F9
:10444000564A92F82C10E0B201F091F8524A02EB71
:104450008401D1F8001C4BF68F7201EA020080F44F
:10446000805080F4005040F4004141F080014A4BFC
:1044700003EB8402C2F8001C1BE0E0B200F0D5FFA1
:10448000454A02EB8401D1F8001C4BF68F7201EA19
:10449000020080F4805080F4005000E00FE040F40F
:1044A000004141F080013C4B03EB8402C2F8001C48
:1044B00000BF354909684869804700206AE700BFA6
:1044C000022067E72DE9F0412E480068467926F082
:1044D00080073C462B480068407900F0800038B1E6
:1044E0002D4901EB8400D0F8000C00F0300506E007
:1044F000294901EB8400D0F8000C00F44055234812
:104500000078A04208D91F480068408820B91DB132
:104510001C480068807A10B90220BDE8F08106F0DE
:104520008000A0B11C4A02EB8401D1F8001C48F6BF
:10453000BF7201EA020080F0100040F4004141F037
:104540008001154B03EB8402C2F8001C14E0124AF0
:1045500002EB8401D1F8001C4BF68F7201EA0200D5
:1045600080F4805040F4004141F080010A4B03EB9D
:104570008402C2F8001C00BF0349096888698047AB
:104580000020CAE77401002080010020D000002034
:10459000780100206C01002000500040D400002071
:1045A00010B5F7480068407A40F02000F4490968E7
:1045B0004872F4490968C8698047002010BD10B5E9
:1045C0000246EF480068438A32B98888C01AEC4C2A
:1045D00024682082002010BD08681844FBE72DE9FC
:1045E000F041E748006800F110042688A068C0B1D7
:1045F000BEB1A588B54200D93546A8B2A1688847A2
:1046000007462088401B2080608828446080002066
:1046100000F07FFF8046AAB24146384600F03EFDDA
:1046200000BF208850B14FF44050D7490880002186
:10463000084600F07AFF3020D44908802088A188FD
:10464000884204DB0320CE490968087218E02088FC
:10465000002804DD0520CA490968087210E0208896
:1046600070B90620C649096808720021C848006868
:1046700080B2801CC74A42F810103020C34908801D
:10468000BDE8F0812DE9F047BD48006800F1100554
:104690002E88BB480068077AD6B9042F18D1BE48C7
:1046A000007801280FD10021B948006880B2801C31
:1046B000B84A42F810103020B449088000BF0020EA
:1046C000B549087003E007271020B049088027E0AB
:1046D000AC88A64201D8042000E002200746B4427C
:1046E00000D93446A0B2A96888478046002000F06F
:1046F00005FF8146A2B24946404600F0B5FCA1B292
:10470000002000F012FF2888001B288068882044C1
:10471000688030209D49088000029B49088000BFC6
:10472000974909680F72BDE8F08770B50226944872
:104730000068447892480068007800F07F00002804
:1047400044D1092C03D1FFF73CFD06465FE0052C60
:1047500014D18B480068C0787F280BDC884800683B
:10476000807838B986480068808818B9844800681D
:10477000807A08B1082565E0002648E0032C0ED1B8
:104780007F480068C078012807D17D48006880888C
:1047900018B9FFF705FF064639E0022637E0012C7D
:1047A00035D177480068C07801280DD17448006879
:1047B000808848B972480068407A00F0200018B13B
:1047C000FFF7D5FD064622E0022620E06C4800688F
:1047D000007800F07F00012805D10B2C17D1FFF7DE
:1047E0001FFD064613E066480068007800F07F0071
:1047F00002280BD1012C03D1FFF7B9FD064606E0D4
:10480000032C04D1FFF75EFE064600E002264EB1FF
:10481000E0B2624A1268516988470646032E01D108
:1048200009250FE00EB108250CE0062500215848A7
:10483000006880B2801C574A42F81010302053495B
:10484000088000BF4E4909680D7270BD2DE9F84F10
:104850004B48006845780027BA46062D1BD14848CA
:104860000068007800F07F00002813D144490968EF
:104870008878012803D149490968CF690AE00228EC
:1048800003D1464909680F6A04E0032802D143496D
:1048900009684F6AADE0002D67D13948006840884B
:1048A000002862D136480068C08802285DD13448AB
:1048B00000680079002858D131480068007800F07D
:1048C0007F0030B92E480068808810B9AFF24F677A
:1048D0008FE02B480068007800F07F00012811D19C
:1048E0002749096848792D4909688A690021904754
:1048F00000287ED122480068807A002879D0AFF263
:104900007F6776E01E480068007800F07F0002288C
:104910006FD11B480068407900F00F061848006806
:10492000407900F0700916480068407900F0800076
:1049300038B11B4901EB8600D0F8000C00F03008BC
:1049400006E0174901EB8600D0F8000C00F440584F
:1049500014480078B0424CD9B9F1000F49D1B8F1F0
:10496000000F46D0AFF2E76743E0082D1CD10448A2
:104970000068007800F07F00D8BBAFF2DB7738E04A
:1049800074010020800100208401002086010020A5
:10499000505C0040006000406E0100207801002063
:1049A00000500040D00000200A2D22D1C5480068E8
:1049B000007800F07F0001281BD1C2480068807A8F
:1049C000B8B1C0480068408898B9BE48006800790E
:1049D00078B9BC480068C08801280AD1B94909687B
:1049E0004879B94909688A690021904708B9AFF246
:1049F000F17757B1B3480068A0F812A0B148006839
:104A000087610020B84700240FE0AE4A1268507852
:104A1000AD4A1268116988470446032C05D1092064
:104A2000A84909680872BDE8F88FA6480068008A9E
:104A30004FF6FF71884204D10920A2490968087223
:104A4000F1E7022C03D09F480068008A20B90820B3
:104A50009C4909680872E6E79A480068007800F007
:104A60008000E0B397480068C088009095480068CF
:104A7000008A0099884204D99249009809680882FE
:104A800023E090480068008A8E490968C9888842F6
:104A90001BDA8C480068008A8B49096891F82C1051
:104AA000884203DA0020894908700EE085480068D2
:104AB000008A8549096891F82C1090FBF1F201FBFE
:104AC000120010B90120814908707F48006890F8F1
:104AD0002C107C4800688182FFF7D4FD07E0FFE7D7
:104AE000032078490968087200037949088000BFEB
:104AF00099E710B5774890F82C10002000F037FDAA
:104B000070480068007A082805D140027049088082
:104B10001020714908806B480068007A092801D18B
:104B2000012010BD0020FCE738B501246B48006867
:104B300080B2001D6A4931F8100080B201EB4000DC
:104B4000009060480068007A092832D00098007808
:104B50005C49096808700098401C00900098007833
:104B60005849096848700098401C0090009800EB74
:104B700044000090009931F8020B009100F0A0FE73
:104B8000504909684880009800EB44000090009963
:104B900031F8020B009100F093FE4A4909688880C1
:104BA000009800EB4400009000980088454909688F
:104BB000C880012043490968087242480068C088DB
:104BC00010B9FFF7B2FD01E0FFF740FEFFF791FFDC
:104BD00038BD30B50146434B1A78002014E0030677
:104BE000414C04EB9353D3F8003C48F68F742340B8
:104BF00048F280042343C4B2234304063A4D05EB34
:104C00009454C4F8003C401C9042E8D341F0800327
:104C1000324C241F236030BD10B52A480068047A46
:104C2000022C01D0042C05D1FFF72CFD254800688B
:104C3000047A1CE0062C19D1224800684078052827
:104C40000ED120480068007800F07F0040B91D496F
:104C50000968C878FFF7BDFF24490968086A8047DA
:104C60001949096888688047082400E00824154924
:104C700009680C72FFF73DFF10BD10B511480068C0
:104C8000047A022C01D0042C01D1082412E0032C58
:104C900001D0052C05D1FFF7A2FC0A480068047A70
:104CA00008E0072C05D108490968C868804708242E
:104CB00000E00824034909680C72FFF71AFF10BDD1
:104CC0007047000074010020780100206E01002070
:104CD00084010020D400002086010020505C0040A8
:104CE00000600040D0000020005000408001002003
:104CF00010B508480849086002200968087207488A
:104D000007490860074808490860054909680868B4
:104D1000804710BD7023002074010020D4000020C3
:104D200078010020040100208001002008B5002047
:104D3000009022E1C448008800F00F00C3490870C9
:104D40000846007800287CD1C1480068C149088025
:104D50000846008800F03000BF490880BD48008840
:104D600000F44050BB490880B94909684BF6BF724E
:104D700001EA020080F4005080F0200040F400417D
:104D800041F08001B24A1160AF48008800F0100085
:104D900090BB1046006848F60F7108401146086045
:104DA000FFF73AFFAA4909684BF6BF7201EA020011
:104DB000A849098801F4805109B180F48050A549BF
:104DC000098801F4005109B180F40050A249098812
:104DD00001F0100109B180F010009F49098801F02D
:104DE000200109B180F0200081B241F4004141F07E
:104DF0008001974A116008BDFFE79548006880B2BE
:104E00000090BDF8000000F40060B0B39048006866
:104E1000C0F30E0048F68F7108408D490860FFF717
:104E200083FE8B4909684BF6BF7201EA020089498B
:104E3000098801F4805109B180F4805085490988BE
:104E400000E056E001F4005109B180F400508249BD
:104E5000098801F0100109B180F010007E4909882D
:104E600001F0200109B180F0200081B241F400413D
:104E700041F08001764A1160BDE7FFE7BDF8000010
:104E800000F40040002878D071480068C0F30E009C
:104E900048F68F7108406E490860FFF7EEFE6C49D6
:104EA00009684BF6BF7201EA02006A49098801F4F9
:104EB000805109B180F480506649098801F400519D
:104EC00009B180F400506449098801F0100109B16A
:104ED00080F010006049098801F0200109B180F0DC
:104EE000200081B241F4004141F08001584A116034
:104EF00081E756480078594901EB8000D0F8000C52
:104F000080B20090BDF8000000F40040C0B14F48EE
:104F1000007801EB8000D0F8000CC0F30E0048F6DA
:104F20008F710840494909784C4A02EB8101C1F868
:104F3000000C46490978491E494A52F82100804729
:104F4000BDF8000000F08000B8B140480078434947
:104F500001EB8000D0F8000C48F60F7108403B4987
:104F600009783E4A02EB8101C1F8000C3749097803
:104F7000491E3C4A52F821008047354844300068B9
:104F800080B23149088000F4004000287FF4D2AE9E
:104F900000BF30E710B500244AE047F6FF702C4907
:104FA000443108602848008800F00F002749087045
:104FB00008460078294901EB8000D0F8000C84B243
:104FC00004F40040C8B12148007801EB8000D0F81B
:104FD000000CC0F30E0048F68F7108401B49097899
:104FE0001E4A02EB8101C1F8000C18490978491EDC
:104FF0001B4A52F8210080471AE004F08000B8B143
:1050000012480078154901EB8000D0F8000C48F6F2
:105010000F7108400D490978104A02EB8101C1F86F
:10502000000C0A490978491E0E4A52F821008047AF
:1050300007484430006880B20349088000F400400B
:105040000028AAD110BD00008000002070010020BF
:10505000005C0040840100208601002000500040D8
:10506000A80000208C000020F0B5144604F1010CCB
:105070004FEA6C07DFF848C00CEB41033D460AE0FD
:105080000678401C90F800C046EA0C2223F8022B58
:105090009B1C401C6D1E002DF2D1F0BDF0B5561CBE
:1050A0007510074E06EB41042B4605E034F8047BEF
:1050B00020F8017B401C5B1E002BF7D1F0BD0000E7
:1050C00000600040FA4908607047F948006880B203
:1050D0007047F749091D08607047F548001D0068D2
:1050E00080B27047F2480830006880B27047F049DB
:1050F0000C3108607047EE480C30006880B2704791
:105100004FF6F8710140EA4A103211607047E848E2
:105110001030006880B27047E64B03EB8002C2F8A3
:10512000001C70470146E34A02EB8100D0F8000CF6
:1051300080B2704710B5DF4B03EB8002D2F8002C31
:1051400048F68F131A400A43DA4C04EB8003C3F885
:10515000002C10BD0146D74A02EB8100D0F8000CAC
:1051600000F4C060704730B5D24C04EB8003D3F834
:10517000003C48F6BF7403EA040201F010030BB1CF
:1051800082F0100201F020030BB182F0200242F401
:10519000004343F08003C74D05EB8004C4F8003C96
:1051A00030BD30B5C34C04EB8003D3F8003C4BF664
:1051B0008F7403EA040201F480530BB182F480522D
:1051C00001F400530BB182F4005242F4004343F067
:1051D0008003B84D05EB8004C4F8003C30BD30B509
:1051E00003460C461846FFF79DFF0546012C07D1E4
:1051F00025F48050AF4A02EB8301C1F8000C08E0AF
:10520000022C06D125F01000AA4A02EB8301C1F856
:10521000000C30BD0146A74A02EB8100D0F8000C1B
:1052200000F0300070470146A24A02EB8100D0F83E
:10523000000C00F44050704710B59E4B03EB800209
:10524000D2F8002C48F6BF7302EA030181F0100186
:1052500081F0200141F4004242F08002954C04EBC1
:105260008003C3F8002C10BD10B5924B03EB8002F5
:10527000D2F8002C4BF68F7302EA030181F48051BF
:1052800081F4005141F4004242F08002894C04EB69
:105290008003C3F8002C10BD864A02EB8001D1F8D0
:1052A000001C41F4807148F68F72114048F2800270
:1052B0001143804B03EB8002C2F8001C70477D4A0B
:1052C00002EB8001D1F8001C48F68F62114048F2D1
:1052D00080021143774B03EB8002C2F8001C704739
:1052E000744A02EB8001D1F8001C48F68F6211402D
:1052F00048F2800211436F4B03EB8002C2F8001C9E
:1053000070476C4A02EB8001D1F8001C41F48071B7
:1053100048F68F72114048F280021143654B03EB4F
:105320008002C2F8001C7047624A02EB8001D1F88B
:10533000001C41F4807148F68F72114048F28002DF
:1053400011435C4B03EB8002C2F8001C7047594AC2
:1053500002EB8001D1F8001C48F68F62114048F240
:1053600080021143534B03EB8002C2F8001C7047CC
:105370000146504A02EB8100D0F8000C00F03000EA
:10538000102801D1012070470020FCE70146494A5E
:1053900002EB8100D0F8000C00F44050B0F5805FC3
:1053A00001D1012070470020FCE7424A02EB800156
:1053B000D1F8001CC1F30E0148F68F7211403D4B2D
:1053C00003EB8002C2F8001C70473A4A02EB8001EE
:1053D000D1F8001C48F60F721140364B03EB8002E7
:1053E000C2F8001C7047334A02EB8001D1F8001C60
:1053F00048F68F7211404CF2800211432D4B03EBA3
:105400008002C2F8001C70472A4A02EB8001D1F8E2
:10541000001C48F68F72114048F2C0021143254B20
:1054200003EB8002C2F8001C7047224A02EB8001A5
:10543000D1F8001C01F4804171B102EB8001D1F878
:10544000001C48F68F7211404CF280021143194B38
:1054500003EB8002C2F8001C7047164A02EB800181
:10546000D1F8001C01F0400171B102EB8001D1F8CC
:10547000001C48F68F72114048F2C00211430D4BD8
:1054800003EB8002C2F8001C704710B5094B03EB18
:105490008002D2F8002C48F68F731A4048F280033D
:1054A0001A430A43034C04EB8003C3F8002C10BDDD
:1054B000405C0040005000400146FC4A02EB810085
:1054C000D0F8000C00F00F00704710B54A105200E1
:1054D000F74B1B689BB203EBC003F64C44F8132058
:1054E00010BD10B54A105300F14A126892B202EB97
:1054F000C002121DEF4C44F8123010BD0146EC48BA
:10550000006880B200EBC100EA4A32F8100080B2B5
:1055100070470146E648006880B200EBC100001DFC
:10552000E44A32F8100080B27047E14A126892B241
:1055300002EBC002921CDF4B43F812107047024688
:105540003E290BDD481101F01F030BB9431E98B231
:105550004FF4004343EA8023136007E0481001F052
:1055600001030BB1431C98B283021360704710B55E
:105570000246CF48006880B200EBC200801DCD4CCF
:1055800004EB40033E290BDD481101F01F040CB968
:10559000441EA0B24FF4004444EA80241C6007E09B
:1055A000481001F001040CB1441CA0B284021C603C
:1055B00010BD0146BE48006880B200EBC100801CEF
:1055C000BC4A32F81000C0F3090070470146B848E1
:1055D000006880B200EBC100801DB64A32F81000AE
:1055E000C0F30900704730B54B105B00B04C246825
:1055F000A4B204EBC004AF4D45F8143053105C0066
:10560000AB4B1B689BB203EBC0031B1D45F813405B
:1056100030BD10B54A105200A54B1B689BB203EB7E
:10562000C003A44C44F8132010BD10B54A10530019
:105630009F4A126892B202EBC002121D9D4C44F8C0
:10564000123010BD01469A48006880B200EBC100DC
:10565000984A32F8100080B27047014694480068BA
:1056600080B200EBC100001D924A32F8100080B2F7
:10567000704730B50B46012B1FD18D49096889B29F
:1056800001EBC001891C8B4D05EB41043E2A0BDD6B
:10569000511102F01F050DB94D1EA9B24FF400457E
:1056A00045EA8125256007E0511002F001050DB1A2
:1056B0004D1CA9B28D0225600AE0022B08D17C495D
:1056C000096889B201EBC001891C7A4C44F81120A9
:1056D000012B1FD17649096889B201EBC001891DF0
:1056E000744D05EB41043E2A0BDD511102F01F05FC
:1056F0000DB94D1EA9B24FF4004545EA812525603C
:1057000007E0511002F001050DB14D1CA9B28D0248
:1057100025600AE0022B08D16549096889B201EBCE
:10572000C001891D634C44F8112030BD30B50346DB
:1057300001291FD15E48006880B200EBC300801CC5
:105740005C4D05EB40043E2A0BDD501102F01F05B5
:105750000DB9451EA8B24FF4004545EA80252560E5
:1057600007E0501002F001050DB1451CA8B28502FA
:1057700025600AE0022908D14D48006880B200EB9C
:10578000C300801C4B4C44F8102030BD30B503469C
:1057900001291FD14648006880B200EBC300801D7C
:1057A000444D05EB40043E2A0BDD501102F01F056D
:1057B0000DB9451EA8B24FF4004545EA8025256085
:1057C00007E0501002F001050DB1451CA8B285029A
:1057D00025600AE0022908D13548006880B200EB54
:1057E000C300801D334C44F8102030BD01463048C2
:1057F000006880B200EBC100801C2E4A32F8100015
:10580000C0F30900704701462948006880B200EBE8
:10581000C100801D274A32F81000C0F3090070470C
:1058200001462348006880B200EBC100801D214A78
:1058300032F8100000F47C4008B1012070471C4889
:10584000006880B200EBC100801C1A4A32F81000D8
:10585000C0F3090008B10220F0E70020EEE710B520
:10586000012910D1114B03EB8002D2F8002C48F62D
:105870008F731A4048F2C0031A430C4C04EB8003A8
:10588000C3F8002C11E002290FD1084B03EB800272
:10589000D2F8002C48F68F731A404CF280031A435A
:1058A000024C04EB8003C3F8002C10BD00500040F4
:1058B000505C004000600040024641EA0220704710
:1058C0000146CAB20B1243EA0220704700201D496C
:1058D00008604FF43F401C49088008460088194979
:1058E000091F0860002070472DE9F04104460E466C
:1058F000154604F07F00FFF701FE0746AAB23946BD
:105900003046FFF7B1FBA9B204F07F00FFF70DFEB0
:105910000020BDE8F0812DE9F04104460E46002547
:1059200004F07F00FFF752FE054604F07F00FFF70A
:10593000F0FD07462A4639463046FFF7AFFB2846BA
:10594000BDE8F081445C00407E010020704700000B
:105950000FB4044910B503AA029800F0FFF810BC78
:105960005DF814FB480000202DE9F0410E46044686
:10597000002020622046E168884730B3252805D002
:10598000D4E901219047206A401CF2E7E1682046F3
:1059900000278847050018D0A5F14100192802D832
:1059A00020354FF400673246294620462760FAF733
:1059B00019FC40B1012804D0F61D26F00706083670
:1059C000D8E7361DD6E72846DAE7206ABDE8F08139
:1059D0002DE9F0410646002410687529314616A5C8
:1059E00010D0AFF30080002802DA404213A507E090
:1059F00031688A0701D512A502E0490704D511A52F
:105A0000012401E0AFF3008000210A2206F12407FF
:105A100009E0B0FBF2FCB0FBF2F302FB1C003030FB
:105A200078541846491C0028F3D123462A463046AC
:105A3000BDE8F04100F038B8000000002D00000083
:105A40002B0000002000000070B504460D462146E2
:105A50001068AFF300802188090502D50F4A7A4407
:105A600002E00E4A7A440E32002104F1240305E0DC
:105A700000F00F060009965D5E54491C0028F7D11E
:105A800020780023000704D5702D02D009B102232D
:105A900011322046BDE8704000F006B86B020000ED
:105AA00070477047704770472DE9F0470D4699469B
:105AB0009246044600F124080168880604D5E0698E
:105AC00021F01001216000E00120A84201DD471B08
:105AD00000E00027A1697A1902EB0900081AA06109
